:1008D400082F010203040506070808210000000090
:1008E400000000000846000000000000000001298C
:1008F40001043B00000000012E19014419014201CA
:1007E100E540453F7079753F007540011208618F02
:1007F10041E541653AFF5541F539E541F45FF5457C
:1008010085413AE53924FB604C24FD6023146033B3
:100811002405704B0529E529B40403752901E5294F
:10082100B4010385442EE52964027033852E4422E8
:10083100E52964027029152EE52EC3940A5020750E
:100841002E5522E529B40217052EE52ED3945540E5
:100851000E752E0A220542E542B4030375420122B8
:1004D300E538453760030206CB75370075380112DE
:1004E30009DF8F3E8E3D8D3C8C3BE542B40128AC49
:1004F3002EE412032FAB3EAA3DA93CA83B1202AC4B
:10050300E4500AF52DF52CF52BF52A800AF52DF587
:100513002C752BA0752A40E542640260030205B0E6
:10052300FFFE7DA07C41AB3EAA3DA93CA83B120245
:10053300AC6002500BE4F52DF52C752B80752A3F2A
:10054300E4FFFE7D207C42AB3EAA3DA93CA83B12C2
:1005530002AC400BE4F52DF52C752B80752A40E495
:10056300FFFE7DA07C41AB3EAA3DA93CA83B120205
:10057300AC603A4038E4FFFE7D207C42AB3EAA3DAE
:10058300A93CA83B1202AC50247F9A7E997D197C2A
:100593003EAB3EAA3DA93CA83B120106E4FBFAF997
:1005A30078C01200158F2D8E2C8D2B8C2AE4FFFE24
:1005B3007D4C7C42AB2DAA2CA92BA82A1201061232
:1005C3000363120C50E52924FE60741470030206C1
:1005D30069240260030206CB752F0C753011753147
:1005E30011753211AF3EAE3DAD3CAC3B120363AB74
:1005F30007AA067C007D0A1204708F337C007D0AF3
:10060300AF03AE021204708D34AF3EAE3DAD3CACD1
:100613003B120363AB07AA067C007D0A12045E1239
:1006230004707C007D0A1204708D357C007D64AFFC
:1006330003AE021204707C007D0A120470807D7583
:100643002F127530117531117532117533117534DF
:1006530011E52E75F00A84F535E52E75F00A8485CB
:10066300F036E4F52622752F0A75301175311175B0
:100673003211753311AF2DAE2CAD2BAC2A1203639F
:100683007C007D0A1204708D34E4FFFE7D207C41E2
:10069300AB2DAA2CA92BA82A1201061203637C00F6
:1006A3007D0A1204708D35E4FFFE7DC87C42AB2DBC
:1006B300AA2CA92BA82A1201061203637C007D0A27
:0906C3001204708D367526012227
:100A7A00E542B401077D01E4FF12096CE529B401DE
:100A8A00077D017F0112096CE529B402077D017F08
:100A9A000212096CE529B403077D017F0312096C70
:010AAA002229
:100C3B00538E7F5389F0758A18758CFCC28DD28CBC
:050C4B00D2A9D2AF2286
:03000B0002075891
:10075800C0E0C0F0C083C082C0D075D000C000C067
:1007680001C002C003C004C005C006C0070540E5BB
:10077800407002053F640A453F7004F53FF54005A7
:1007880038E53870020537B4F40BE537B40106755F
:1007980037007538000543E543B408037543007412
:1007A8002F2543F8E6FD74212543F8E6FBAF4312F5
:1007B80009A674462543F8E6FDAF4312096CD00735
:1007C800D006D005D004D003D002D001D000D0D0BC
:0907D800D082D083D0F0D0E032D1
:100C8C00120BB5120C3B1207E11204D3120A7A8034
:010C9C00F562
:10086100E4FFC2C4D2C2D2B5D2B420B3027F042005
:10087100B2027F0520B1027F0620B0027F07D2C4F9
:10088100C2C2D2B5D2B420B3027F0820B2027F091E
:1008910020B1027F0A20B0027F0BD2C4D2C2C2B5FE
:1008A100D2B420B3027F0C20B2027F0D20B1027FAF
:1008B1000E20B0027F0FD2C4D2C2D2B5C2B420B3CF
:1008C100027F1020B2027F1120B1027F1220B002FC
:0208D1007F1393
:0108D3002202
:10090400134EC0F9A4B0999282F880908883C6A14E
:0F091400868EBFFF8C086101020408102040800E
:1009A6007580FFE5A0541F44E0F5A053A01F7461B5
:1009B6002FF8E6F580E5A0541F44C0F5A053A01F0C
:1009C600744E2DF8E6F580EB600353807FE5A05466
:0909D6001F44E0F5A053A01F220C
:100BB500E5A0541F4480F5A07580FF53A01FE5A054
:0D0BC500541F44A0F5A0E4F58053A01F22AA
:060923000112000113FFA8
:10096C00ED600F7401A807088002C333D8FC421253
:10097C00800E7401A807088002C333D8FCF452120D
:10098C00E51265136013E512F4F580E5A0541F44DD
:09099C0080F5A053A01F85121381
:0109A500222F
:100C7900E4FEC297EF1392A3EFC313FFD2970EBE00
:020C890008F071
:010C8B002246
:100C6500C29300C29700D29300120C79AF05120C03
:040C750079C293228B
:100A1400E4FDC29300C29700D29300120C79E4FF64
:100A2400C297EDC313FD30A303430580D2970FBFD4
:100A340008EEC29300C29700D29700C2A300D2A3CB
:030A440000AF05FB
:010A4700228C
:100AAB00E4FD7F8E120C651203E4FD7F84120C654E
:100ABB009000011203FDFD7F82120C659000021263
:0F0ACB0003FDFD7F80120C657D807F8E020C6520
:100B76007F85120A14EF12042A7F83120A1490004A
:100B860001EF12043C7F81120A14900002EF020466
:010B96003C22
:040BEF007F057E0000
:100BF300EF1FAA0670011E4A600BE4FDEDC3940CBF
:050C030050EE0D80F72A
:010C080022C9
:020B9700A907AC
:100B9900E4FBC294E9139294120BEFD294E9C313C4
:0C0BA900F90BBB08ED7F057E00020BF38A
:100C0900E4FBC294ECC313FCD294309403430480F4
:090C1900120BEF0BBB08EBAF045A
:010C220022AF
:100B0600C200D2947F0C7E00120BF3C2947F507EFB
:100B160000120BF3D2947F0A7E00120BF3A294927A
:060B260000120BEFA2001B
:010B2C0022A6
:1009DF00120B067FCC120B977F44120B97120B064C
:1009EF007FCC120B977FBE120B97120C09A907121F
:1009FF000C09EFAD01FCE412032AE4FBFA798078CD
:040A0F004112020F7F
:010A130022C0
:040CB800D2A07F0542
:070CBC00AE071FEE70FA22E3
:0F0C9D00D2A1120CB8C2A17F05120CBCC2A022BA
:0C0CAC00C2A1120CB8D2A17F05020CBC42
:020ADA00AD0766
:100ADC00E4FCC2A07F05120CBCED30E704D2A1806F
:100AEC0002C2A17F05120CBCD2A0ED25E0FD7F0552
:090AFC00120CBC0CBC08DBC2A00A
:010B050022CD
:100BD200E4FC120CB8ED25E0FD30A103430501C28F
:0C0BE200A07F05120CBC0CBC08E8AF059D
:010BEE0022E4
:100B5200AB05120C9D7FA0120ADA120B64AF0312CE
:020B62000ADAAD
:100B6400120CB8A2A1E433FDC2A07F05120CBCAFE5
:010B7400057B
:010B7500225D
:100C2300C2A0EF24FF92A17F05120CBC120CB8C224
:080C3300A0D2A17F05020CBC58
:020B2D00AB0714
:100B2F00120C9D7F90120B59120C9D7F91120ADAB5
:100B3F00120B64120BD2AB077F01120ADA120CAC44
:020B4F00AF03F2
:010B51002281
:100C5000AB07120C9D7F90120ADA120B647F4112CF
:050C60000B59020CAC71
:100A48008B088A09890A120B52AF0C150CEF601F2C
:100A5800AB08050AE50AAA097002050914F9120388
:100A6800E4FF120ADA120B647FC8120CBC80DA02A7
:020A78000CACC4
:10092A008B0D8A0E890F120B52120C9D7FA1120A8F
:10093A00DA120B64AF111511EF6024120BD2AB0D52
:10094A00050FE50FAA0E7002050E14F9EF12042A1C
:10095A00E5116004E4FF80027F01120C2380D502B6
:02096A000CACD3
:10000E000203CFE86480F8E933E83360110460F04E
:10001E00ED33EC337009E8FCE9FDEAFEEBFF220458
:10002E0060DED3EB9FEA9EE99DE8C2E78CF0C2F753
:10003E0095F0400CE8CCF8E9CDF9EACEFAEBCFFB1F
:10004E0012039A85D0F05804700320D5B3E80470DB
:10005E00075002B2D50203D992D5EC0460F7E4CC76
:10006E00C0E0C398F8603B94186008400DD0E0FBE8
:10007E000203B1E4FBFAC9FC8028E830E406E4C9C7
:10008E00FBE4CAFCE830E305E4C9CACBFCE854073C
:10009E006010F8C3E913F9EA13FAEB13FBEC13FC47
:1000AE00D8F130F52FC3E49CFCEF9BFFEE9AFEEDEA
:1000BE0099FDD0E0FBEF4E4D4C701222DB03020394
:1000CE00D6EC2CFCEF33FFEE33FEED33FDED30E7D7
:1000DE00EB0203B1EF2BFFEE3AFEED39FDD0E0FB64
:1000EE0050130BBB00030203D9ED13FDEE13FEEF0D
:0800FE0013FFEC13FC0203B137
:10010600EC4D6011E8497017ED33EC3304600DE4F3
:10011600FCFFFEFD22E933E8330470F80203CF1238
:10012600039A58046009E4CC248150062850090239
:1001360003D92840030203D6C0E0EB4A7044B980D5
:1001460006D0E0FB0203C5EF4E701CBD8008EBFF36
:10015600EAFEE9FD80EBE98DF0A4FEE5F00201EF91
:10016600E9CDF9EAFEEBFFEF89F0A4FCE5F0CE89D4
:10017600F0A42EFFE435F0CD89F0A42DFEE435F091
:100186008067EF4E7005BD80D780C3EF8BF0A4ACBF
:10019600F0EE8BF0A42CFCE435F0F8EF8AF0A42CFA
:1001A600E5F038FCE433CB8DF0A42CFCE5F03BF80D
:1001B600EE8AF0A42CFCE5F038F8E433CF89F0A4FD
:1001C6002CFCE5F038CF3400CE89F0A42FFFE5F003
:1001D6003EFEE433C98DF0A42EFEE5F039CD8AF05B
:1001E600A42FFFE5F03EFEE43DFD33D0E0FB5007D3
:1001F6000BBB000F0203D9EC2CFCEF33FFEE33FEF2
:06020600ED33FD0203B11F
:10020C000203D9EC5D046005E8590470030203CFC6
:10021C0012039A580460F6EC4860F2EC7004FDFE90
:10022C00FF22C860DB2481C85009C39860025006C5
:10023C000203D69850CAF582E9294B4A7005AB8265
:10024C000203C575F0007C1A7880C3EF9BEE9AED23
:10025C0099400DC3EF9BFFEE9AFEED99FDE842F03D
:10026C00DC23ACF0D0E0FFD0E0FED0E0FDAB822090
:10027C00E7101BEB60BAEC2CFCEF33FFEE33FEED1A
:10028C0033FD0203B1E803F830E705C0F075F00068
:10029C00EF2FFFEE33FEED33FD40B830E7C280AAFE
:1002AC0074F8CC6480CCC86480C8F58204604FC3F9
:1002BC00EB9FF5F0EA9E42F0E99D42F0E89C45F098
:1002CC00603C501DE5825FFFE582D313CB5BCBF422
:1002DC002B5582FB50280ABA002409B9002008804B
:1002EC001DE5825BFBE582D313CF5FCFF4C3132FE5
:1002FC005582FF50090EBE00050DBD00010CC3EB6D
:10030C009FF5F0EA9E42F0E99D42F0E89C45F060D2
:09031C0007CC4820E701B3EC22F4
:1003250075F020800E75F010800575F0087D007E53
:10033500007F003392D530D5031204C5EC3340104D
:10034500EF33FFEE33FEED33FDEC33FCD5F0ED225C
:0E035500E5F0247EA2D513CC92E7CDCEFF2298
:10036300EDD2E7CD33EC3392D524814006E4FFFE92
:10037300FDFC22FCE4CFCECDCC24E0501174FF80F1
:10038300EDC3CC13CCCD13CDCE13CECF13CF04708E
:07039300F030D5DE0204C5C5
:10039A00E9D2E7C933E833F892D5EDD2E7CD33ECA9
:0703AA0033FC5002B2D52222
:1003B100EC30E7100FBF000C0EBE00080DBD0004AD
:1003C1000BEB6014A2D5EB13FCED92E7FD2274FF59
:1003D100FCFDFEFF22E480F8A2D574FF13FC7D80B2
:0303E100E480EFC6
:030000000206CC29
:0C06CC00787FE4F6D8FD75816802071302
:1003E400BB010689828A83E0225002E722BBFE0217
:0903F400E32289828A83E493224A
:1003FD00BB010CE58229F582E5833AF583E02250B5
:10040D0006E92582F8E622BBFE06E92582F8E222FE
:0D041D00E58229F582E5833AF583E4932218
:10042A00BB010689828A83F0225002F722BBFE01B1
:02043A00F322AB
:10043C00F8BB010DE58229F582E5833AF583E8F0F6
:10044C00225006E92582C8F622BBFE05E92582C8A2
:02045C00F2228A
:10045E00EF8DF0A4A8F0CF8CF0A428CE8DF0A42EB2
:02046E00FE226C
:10047000BC000BBE0029EF8DF084FFADF022E4CC70
:10048000F875F008EF2FFFEE33FEEC33FCEE9DEC39
:10049000984005FCEE9DFE0FD5F0E9E4CEFD22ED7F
:1004A000F8F5F0EE8420D21CFEADF075F008EF2FC9
:1004B000FFED33FD4007985006D5F0F222C398FDBA
:0504C0000FD5F0EA2257
:0E04C500C3E49FFFE49EFEE49DFDE49CFC2248
:1006D800020C8CE493A3F8E493A34003F68001F2A0
:1006E80008DFF48029E493A3F85407240CC8C33323
:1006F800C4540F4420C8834004F456800146F6DFF2
:10070800E4800B01020408102040809008D4E47EA5
:10071800019360BCA3FF543F30E509541FFEE493E6
:10072800A360010ECF54C025E060A840B8E493A3AD
:10073800FAE493A3F8E493A3C8C582C8CAC583CAD8
:10074800F0A3C8C582C8CAC583CADFE9DEE780BE90
:0109290000CD
:00000001FF
