:1005DB00082E01020304050607080821000000008D
:1005EB000000000008440000000000000000012B88
:1005FB0001024C1E14022C1E14C100022900000122
:02060B003E00AF
:0D09A100007F067EB47D1ADDFEDEFCDFFA6D
:0109AE002226
:10040A00E53B453A60030204AC753A00753B0112BC
:10041A00092A8F3CE53C6539FF553CF538E53CF443
:10042A005FF53F853C39E53824FB60361460441497
:10043A00605A2403706C052BE52BB40303752B015A
:10044A00E52BB40209753E01852C4C852D4DE52B13
:10045A006401704EE54CC3954D4047854C2C854D43
:10046A002D22E52B6402703A053EE53E64027032A5
:10047A00F53E22E52B64027029744C253EF806E607
:10048A006464701E744C253EF8E4F622E52BB4022F
:10049A0011744C253EF816E6B4FF07744C253EF855
:0304AA0076632254
:10034100E537453660030204097536007537011239
:1003510006E88F438E428D418C40E52B24FE6038A8
:10036100046003020409752E0C752F117530117587
:100371003111753211753311AF43AE42AD41AC400D
:10038100120165EF75F00A8475F00A8485F034EF87
:1003910075F00A8485F03522752E12752F1175308E
:1003A10011E54C75F00A8475F00A84AFF08F31E5E0
:1003B1004C75F00A84AEF08E32753311E54D75F04F
:1003C1000A8475F00A84ADF08D34E54D75F00A8428
:1003D100A9F08935E53E701430000280027F118F4B
:1003E10031300004AF0680027F118F32E53E640197
:1003F1007016300004AF0580027F118F3430000485
:09040100AF0180027F118F35224A
:10026E00AC4CE4120131AB43AA42A941A8401200A2
:10027E00AE600740057FCC120956AC4DE412013139
:10028E00AB43AA42A941A8401200AE401AAC4CE4BE
:10029E00120131AB43AA42A941A8401200AE60023E
:1002AE0050057F99120956AC4DE4120131AB43AAA9
:1002BE0042A941A8401200AE50057F66120956AC05
:1002CE004CE4120131AB43AA42A941A8401200AE40
:1002DE00600940077D01E4FF120675AC4DE4120182
:1002EE0031AB43AA42A941A8401200AE401CAC4C0F
:1002FE00E4120131AB43AA42A941A8401200AE60FC
:10030E000250077D017F01120675AC4DE4120131DA
:10031E00AB43AA42A941A8401200AE50077D017F0F
:10032E0002120675E54CC3954D50077D017F0312F1
:03033E000675221F
:10094100538E7F5389F0758A18758CFCC28DD28CB9
:05095100D2A9D2AF2283
:03000B000204AD3F
:1004AD00C0E0C0F0C083C082C0D075D000C000C015
:1004BD0001C002C003C004C005C006C007053BE56E
:1004CD003B7002053A640A453A7004F53AF53B056E
:1004DD0037E53770020536B4F40BE536B401067511
:1004ED003600753700053DE53DB40803753D0074D4
:1004FD002E253DF8E6FD7421253DF8E6FBAF3D12B6
:10050D0006AF7444253DF8E6FDAF3D120675052A8C
:10051D00E52A70020529FFAE29BE010BBFF408754F
:10052D002900752A00B200D007D006D005D004D01E
:10053D0003D002D001D000D0D0D082D083D0F0D063
:02054D00E0329A
:100913001206E81209A11208AA12094112040A12C6
:07092300034112026E80F592
:10097F00E4FEC297EF1392A3EFC313FFD2970EBEFD
:02098F0008F06E
:010991002243
:10096B00C29300C29700D2930012097FAF05120900
:04097B007FC2932282
:10071D00E4FDC29300C29700D2930012097FE4FF5B
:10072D00C297EDC313FD30A303430580D2970FBFCE
:10073D0008EEC29300C29700D29700C2A300D2A3C5
:03074D0000AF05F5
:010750002286
:10078300E4FD7F8E12096B1201E6FD7F8412096B73
:100793009000011201FFFD7F8212096B900002128B
:0F07A30001FFFD7F8012096B7D807F8E02096B45
:10084E007F8512071DEF12022C7F8312071D900069
:10085E0001EF12023E7F8112071D900002EF02028D
:01086E003E4B
:0409BB00D2A07F0542
:0709BF00AE071FEE70FA22E3
:0F099200D2A11209BBC2A17F051209BFC2A022C8
:0C09AF00C2A11209BBD2A17F050209BF42
:0207B200AD0791
:1007B400E4FCC2A07F051209BFED30E704D2A1809A
:1007C40002C2A17F051209BFD2A0ED25E0FD7F057D
:0907D4001209BF0CBC08DBC2A035
:0107DD0022F9
:10088D00E4FC1209BBED25E0FD30A103430501C2D7
:0C089D00A07F051209BF0CBC08E8AF05E5
:0108A900222C
:10082A00AB051209927FA01207B212083CAF03125D
:02083A0007B203
:10083C001209BBA2A1E433FDC2A07F051209BFAF10
:01084C0005A6
:01084D002288
:1008FB00C2A0EF24FF92A17F051209BF1209BBC250
:08090B00A0D2A17F050209BF83
:02080500AB073F
:100807001209927F901208311209927F911207B252
:1008170012083C12088DAB077F011207B21209AF0D
:02082700AF031D
:0108290022AC
:10095600AB071209927F901207B212083C7F411230
:0509660008310209AF99
:100751008B088A09890A12082AAF0C150CEF601F51
:10076100AB08050AE50AAA097002050914F9120184
:10077100E6FF1207B212083C7FC81209BF80DA02F5
:0207810009AFBE
:100633008B0D8A0E890F12082A1209927FA11207C5
:10064300B212083CAF111511EF602412088DAB0DE7
:10065300050FE50FAA0E7002050E14F9EF12022C16
:10066300E5116004E4FF80027F011208FB80D502DC
:0206730009AFCD
:1008AA00E5A0541F4480F5A07580FF53A01FE5A062
:0D08BA00541F44A0F5A0E4F58053A01F22B8
:10092A00E4FF20B3027F0420B2027F0520B1027FD8
:06093A000620B0027F0759
:010940002294
:06060D000112000113FFC1
:10067500ED600F7401A807088002C333D8FC42124D
:10068500800E7401A807088002C333D8FCF4521207
:10069500E51265136013E512F4F580E5A0541F44D7
:0906A50080F5A053A01F8512137B
:0106AE002229
:0408C7007F057E002B
:1008CB00EF1FAA0670011E4A600BE4FDEDC3940CEA
:0508DB0050EE0D80F756
:0108E00022F5
:02086F00A907D7
:10087100E4FBC294E91392941208C7D294E9C3131A
:0C088100F90BBB08ED7F057E000208CBE0
:1008E100E4FBC294ECC313FCD29430940343048020
:0908F1001208C70BBB08EBAF04B1
:0108FA0022DB
:1007DE00C201D2947F0C7E001208CBC2947F507E51
:1007EE00001208CBD2947F0A7E001208CBA29492FC
:0607FE00011208C7A20170
:0108040022D1
:1006E8001207DE7FCC12086F7F4412086F1207DEF4
:1006F8007FCC12086F7FBE12086F1208E1A907129B
:1007080008E1EFAD01FCE412012CE4FBFA798078F2
:040718004112001179
:01071C0022BA
:10061300134EC0F9A4B0999282F880908883C6A142
:0F062300868EBFFF8C0861010204081020408002
:1006AF007580FFE5A0541F44E0F5A053A01F7461AF
:1006BF002FF8E6F580E5A0541F44C0F5A053A01F06
:1006CF00744E2DF8E6F580EB600353807FE5A05460
:0906DF001F44E0F5A053A01F2206
:10000E000201DBEC5D046005E8590470030201D1C6
:10001E0012019C580460F6EC4860F2EC7004FDFE90
:10002E00FF22C860DB2481C85009C39860025006C5
:10003E000201D89850CAF582E9294B4A7005AB8265
:10004E000201C775F0007C1A7880C3EF9BEE9AED23
:10005E0099400DC3EF9BFFEE9AFEED99FDE842F03D
:10006E00DC23ACF0D0E0FFD0E0FED0E0FDAB822090
:10007E00E7101BEB60BAEC2CFCEF33FFEE33FEED1A
:10008E0033FD0201B3E803F830E705C0F075F00068
:10009E00EF2FFFEE33FEED33FD40B830E7C280AAFE
:1000AE0074F8CC6480CCC86480C8F58204604FC3F9
:1000BE00EB9FF5F0EA9E42F0E99D42F0E89C45F098
:1000CE00603C501DE5825FFFE582D313CB5BCBF422
:1000DE002B5582FB50280ABA002409B9002008804B
:1000EE001DE5825BFBE582D313CF5FCFF4C3132FE5
:1000FE005582FF50090EBE00050DBD00010CC3EB6D
:10010E009FF5F0EA9E42F0E99D42F0E89C45F060D2
:09011E0007CC4820E701B3EC22F4
:1001270075F020800E75F010800575F0087D007E53
:10013700007F003392D530D503120260EC334010B4
:10014700EF33FFEE33FEED33FDEC33FCD5F0ED225C
:0E015700E5F0247EA2D513CC92E7CDCEFF2298
:10016500EDD2E7CD33EC3392D524814006E4FFFE92
:10017500FDFC22FCE4CFCECDCC24E0501174FF80F1
:10018500EDC3CC13CCCD13CDCE13CECF13CF04708E
:07019500F030D5DE0202602C
:10019C00E9D2E7C933E833F892D5EDD2E7CD33ECA9
:0701AC0033FC5002B2D52222
:1001B300EC30E7100FBF000C0EBE00080DBD0004AD
:1001C3000BEB6014A2D5EB13FCED92E7FD2274FF59
:1001D300FCFDFEFF22E480F8A2D574FF13FC7D80B2
:0301E300E480EFC6
:0300000002054FA7
:0C054F00787FE4F6D8FD758168020596FF
:1001E600BB010689828A83E0225002E722BBFE0217
:0901F600E32289828A83E493224A
:1001FF00BB010CE58229F582E5833AF583E02250B5
:10020F0006E92582F8E622BBFE06E92582F8E222FE
:0D021F00E58229F582E5833AF583E4932218
:10022C00BB010689828A83F0225002F722BBFE01B1
:02023C00F322AB
:10023E00F8BB010DE58229F582E5833AF583E8F0F6
:10024E00225006E92582C8F622BBFE05E92582C8A2
:02025E00F2228A
:0E026000C3E49FFFE49EFEE49DFDE49CFC22AF
:10055B00020913E493A3F8E493A34003F68001F29A
:10056B0008DFF48029E493A3F85407240CC8C333A1
:10057B00C4540F4420C8834004F456800146F6DF70
:10058B00E4800B01020408102040809005DBE47E20
:10059B00019360BCA3FF543F30E509541FFEE49365
:1005AB00A360010ECF54C025E060A840B8E493A32C
:1005BB00FAE493A3F8E493A3C8C582C8CAC583CA57
:1005CB00F0A3C8C582C8CAC583CADFE9DEE780BE0F
:0106320000C7
:00000001FF
