:10085A000830010203040506070808210000000009
:10086A000000000008470000000000000000012905
:07087A0001C180C181C182B0
:1008A800E53F453E7040753E00753F01120A688F6E
:1008B80040E540653DFF5540F53AE540F45FF546B3
:1008C80085403DE53A24FB60151460151460152435
:1008D8000370130529E529B4030C75290122B20018
:0708E80022B20122B202223C
:10044300E539453860030205FA7538007539017FCF
:10045300431209D2AC07E4120247E4FBFA794C7861
:10046300421201278F2D8E2C8D2B8C2A30000AE40B
:10047300F545F544F54375424020000C852D45852F
:100483002C44852B43852A42E4FFFE7D4C7C42AB02
:1004930045AA44A943A84212001E12027B120A94E1
:1004A300E52924FE700302059F0460030205FA7523
:1004B300300F753111AE2EAF2FE4FCFD7B9F7A8692
:1004C3007901F8C312035F5019AE2EAF2FE4FCFD80
:1004D3000BF81208EFE47B0AFAF9F81208EFAF03FE
:1004E30080027F118F32D3E52F940FE52E9427409E
:1004F30016AE2EAF2F7C277D101202FC7C007D0AE6
:100503001202FCAF0580027F118F33D3E52F94E7EE
:10051300E52E94034016AE2EAF2F7C037DE8120226
:10052300FC7C007D0A1202FCAF0580027F118F3430
:10053300D3E52F9463E52E94004016AE2EAF2F7CA7
:10054300007D641202FC7C007D0A1202FCAF058070
:10055300027F118F35D3E52F9409E52E94004016C1
:10056300AE2EAF2F7C007D0A1202FC7C007D0A12A6
:1005730002FCAF0580027F118F36D3E52F9400E58F
:100583002E9400400FAE2EAF2F7C007D0A1202FC8A
:10059300AF0580027F118F37E4F52622753013757E
:1005A3003111753211753311753411AF2DAE2CAD78
:1005B3002BAC2A12027B8F35E4FFFE7D207C41ABFE
:1005C3002DAA2CA92BA82A12001E12027B7C007DC7
:1005D3000A1202FC8D36E4FFFE7DC87C42AB2DAAD5
:1005E3002CA92BA82A12001E12027B7C007D0A1262
:0805F30002FC8D377526012280
:1005FB00E529B40206754701E4F548E529B401067F
:10060B00E4F547754801E4FFFE7DC07C3FAB2DAAA6
:10061B002CA92BA82A1201C45003E4F549E4FFFED0
:10062B007DC07C3FAB2DAA2CA92BA82A1201C4405C
:10063B0017E4FFFE7D207C40AB2DAA2CA92BA82A0A
:10064B001201C45003754901E4FFFE7D207C40ABD1
:10065B002DAA2CA92BA82A1201C44017E4FFFE7D5A
:10066B00607C40AB2DAA2CA92BA82A1201C45003E5
:10067B00E4F549E4FFFE7D607C40AB2DAA2CA92B51
:10068B00A82A1201C44003754901C3E52F94E8E57C
:10069B002E94035003E4F54AC3E52F94E8E52E941A
:1006AB0003400DE52F9488E52E94135003754A01F2
:1006BB00C3E52F9488E52E9413400DE52F9410E598
:1006CB002E94275003E4F54AC3E52F9410E52E949E
:1006DB00274003754A01E4FFFEFD7C40AB45AA446D
:1006EB00A943A8421201C47002F54BAF2DAE2CAD3D
:1006FB002BAC2AAB45AA44A943A8421201C47003F0
:04070B00754B012207
:100ABD00538E7F5389F0438905E4F58AF58CC28DF9
:030ACD00D28C22A6
:100A7F00438E4053890F758B20758DD1C28FD28EC7
:050A8F00D2ABD2AF2242
:03001B0002070FCA
:10070F00C0E0C0F0C083C082C0D075D000C000C0B0
:10071F0001C002C003C004C005C006C007053FE505
:10072F003F7002053E640A453E7004F53EF53F05F5
:10073F0039E53970020538B4F40BE538B4010675A4
:10074F0038007539000541E541B4080375410030A3
:10075F00021074302541F8E6FD74212541F8E6FBBF
:10076F008004E4FB7D11AF4112096D30010874471D
:10077F002541F8E68001E4FDAF41120933053CE560
:10078F003C7002053BFFAE3BBE0319BFE816753B3D
:10079F0000753C00AF8CEFAD8AF52EEDF52F758A05
:1007AF0000758C00D007D006D005D004D003D0023E
:0F07BF00D001D000D0D0D082D083D0F0D0E032A3
:100AA9001209F7120ABD120A7F1208A8120443128A
:040AB90005FB80F5C4
:100A6800E4FF20B3027F0420B2027F0520B1027F99
:060A78000620B0027F071A
:010A7E002255
:10088100144FC0F9A4B0999282F880908883C6A1D0
:10089100868EBFFF8CC108630102040810204080CE
:10096D007580FFE5A0541F44E0F5A053A01F7463EC
:10097D002FF8E6F580E5A0541F44C0F5A053A01F45
:10098D00744F2DF8E6F580EB600353807FE5A0549E
:09099D001F44E0F5A053A01F2245
:1009F700E5A0541F4480F5A07580FF53A01FE5A014
:0D0A0700541F44A0F5A0E4F58053A01F2269
:0608A1000108000109FF3F
:10093300ED600F7401A807088002C333D8FC420896
:10094300800E7401A807088002C333D8FCF4520850
:10095300E50865096013E508F4F580E5A0541F4434
:0909630080F5A053A01F850809CE
:01096C002268
:040A4E00D2A07F05AE
:100A5200000000000000000000000000000000AEE6
:060A6200071FEE70EB22FD
:0F0AD000D2A1120A4EC2A17F05120A52C2A02261
:0C0ADF00C2A1120A4ED2A17F05020A52E9
:0209A600AD079B
:1009A800E4FCC2A07F05120A52ED30E704D2A18010
:1009B80002C2A17F05120A52D2A0ED25E0FD7F05F3
:0909C800120A520CBC08DBC2A0AB
:0109D1002203
:100A1400E4FC120A4EED25E0FD30A103430501C2BA
:0C0A2400A07F05120A520CBC08E8AF05C8
:010A300022A3
:0B0A31001209A6120A3CAF031209A62E
:100A3C00120A4EA2A1E433FDC2A07F05120A52AFE6
:010A4C0005A4
:010A4D002286
:10000300C2A0EF24FF92A17F05120A52120A4EC228
:08001300A0D2A17F05020A52F0
:0209D200AB0771
:1009D400120AD07F90120A31120AD07F911209A60E
:1009E400120A3C120A14AB077F011209A6120ADF8D
:0209F400AF034F
:0109F60022DE
:100A9400AB07120AD07F901209A6120A3C7F4112BA
:050AA4000A31020ADF27
:10001E00EC4D6011E8497017ED33EC3304600DE4DC
:10002E00FCFFFEFD22E933E8330470F80202E7120A
:10003E0002B258046009E4CC24815006285009020B
:10004E0002F12840030202EEC0E0EB4A7044B98090
:10005E0006D0E0FB0202DDEF4E701CBD8008EBFF08
:10006E00EAFEE9FD80EBE98DF0A4FEE5F002010762
:10007E00E9CDF9EAFEEBFFEF89F0A4FCE5F0CE89BD
:10008E00F0A42EFFE435F0CD89F0A42DFEE435F07A
:10009E008067EF4E7005BD80D780C3EF8BF0A4ACA8
:1000AE00F0EE8BF0A42CFCE435F0F8EF8AF0A42CE3
:1000BE00E5F038FCE433CB8DF0A42CFCE5F03BF8F6
:1000CE00EE8AF0A42CFCE5F038F8E433CF89F0A4E6
:1000DE002CFCE5F038CF3400CE89F0A42FFFE5F0EC
:1000EE003EFEE433C98DF0A42EFEE5F039CD8AF044
:1000FE00A42FFFE5F03EFEE43DFD33D0E0FB5007BC
:10010E000BBB000F0202F1EC2CFCEF33FFEE33FEC3
:06011E00ED33FD0202C9F1
:100124000202F1EC5D046005E8590470030202E781
:100134001202B2580460F6EC4860F2EC7004FDFE62
:10014400FF22C860DB2481C85009C39860025006AE
:100154000202EE9850CAF582E9294B4A7005AB8237
:100164000202DD75F0007C1A7880C3EF9BEE9AEDF5
:1001740099400DC3EF9BFFEE9AFEED99FDE842F026
:10018400DC23ACF0D0E0FFD0E0FED0E0FDAB822079
:10019400E7101BEB60BAEC2CFCEF33FFEE33FEED03
:1001A40033FD0202C9E803F830E705C0F075F0003A
:1001B400EF2FFFEE33FEED33FD40B830E7C280AAE7
:1001C40074F8CC6480CCC86480C8F58204604FC3E2
:1001D400EB9FF5F0EA9E42F0E99D42F0E89C45F081
:1001E400603C501DE5825FFFE582D313CB5BCBF40B
:1001F4002B5582FB50280ABA002409B90020088034
:100204001DE5825BFBE582D313CF5FCFF4C3132FCD
:100214005582FF50090EBE00050DBD00010CC3EB55
:100224009FF5F0EA9E42F0E99D42F0E89C45F060BB
:0902340007CC4820E701B3EC22DD
:10023D0075F020800E75F010800575F0087D007E3C
:10024D00007F003392D530D503120351EC334010AB
:10025D00EF33FFEE33FEED33FDEC33FCD5F0ED2245
:0E026D00E5F0247EA2D513CC92E7CDCEFF2281
:10027B00EDD2E7CD33EC3392D524814006E4FFFE7B
:10028B00FDFC22FCE4CFCECDCC24E0501174FF80DA
:10029B00EDC3CC13CCCD13CDCE13CECF13CF047077
:0702AB00F030D5DE02035123
:1002B200E9D2E7C933E833F892D5EDD2E7CD33EC92
:0702C20033FC5002B2D5220B
:1002C900EC30E7100FBF000C0EBE00080DBD000496
:1002D9000BEB6014A2D5EB13FCED92E7FD2274FF42
:1002E900FCFDFEFF22E480F8A2D574FF13FC7D809B
:0302F900E480EFAF
:030000000207CE26
:0C07CE00787FE4F6D8FD75816A020815FA
:1002FC00BC000BBE0029EF8DF084FFADF022E4CCE6
:10030C00F875F008EF2FFFEE33FEEC33FCEE9DECAE
:10031C00984005FCEE9DFE0FD5F0E9E4CEFD22EDF4
:10032C00F8F5F0EE8420D21CFEADF075F008EF2F3E
:10033C00FFED33FD4007985006D5F0F222C398FD2F
:05034C000FD5F0EA22CC
:1008EF00C2D5E830E70FB2D5E4C39BFBE49AFAE434
:1008FF0099F9E498F8EC30E717B2D51209251203ED
:10090F00B1E4C39BFBE49AFAE499F9E498F8800305
:10091F001203B130D50DE4C39FFFE49EFEE49DFDAD
:04092F00E49CFC2226
:0E035100C3E49FFFE49EFEE49DFDE49CFC22BD
:10035F00EB9FF5F0EA9E42F0E99D42F0EC6480C815
:06036F0064809845F022B5
:1007DA00020AA9E493A3F8E493A34003F68001F282
:1007EA0008DFF48029E493A3F85407240CC8C33320
:1007FA00C4540F4420C8834004F456800146F6DFEF
:10080A00E4800B010204081020408090085AE47E1C
:10081A00019360BCA3FF543F30E509541FFEE493E3
:10082A00A360010ECF54C025E060A840B8E493A3AA
:10083A00FAE493A3F8E493A3C8C582C8CAC583CAD5
:10084A00F0A3C8C582C8CAC583CADFE9DEE780BE8D
:0108A7000050
:1003750075F008758200EF2FFFEE33FECD33CDCC3F
:1003850033CCC58233C5829BED9AEC99E5829840C2
:100395000CF582EE9BFEED9AFDEC99FC0FD5F0D69F
:1003A500E4CEFBE4CDFAE4CCF9A88222B800C1B9C9
:1003B5000059BA002DEC8BF084CFCECDFCE5F0CB07
:1003C500F97818EF2FFFEE33FEED33FDEC33FCEB40
:1003D50033FB10D703994004EB99FB0FD8E5E4F9FB
:1003E500FA227818EF2FFFEE33FEED33FDEC33FCE8
:1003F500C933C910D7059BE99A4007EC9BFCE99ADC
:10040500F90FD8E0E4C9FAE4CCFB2275F010EF2F20
:10041500FFEE33FEED33FDCC33CCC833C810D70720
:100425009BEC9AE899400AED9BFDEC9AFCE899F85B
:0E0435000FD5F0DAE4CDFBE4CCFAE4C8F922EE
:00000001FF
